:1000000000800020BD010000DD180000A1180000E4
:10001000A1180000A1180000A1180000A1180000FC
:10002000A1180000A1180000A1180000DD180000B0
:10003000DD180000A1180000DD1800009118000074
:10004000DD180000DD180000DD180000DD180000DC
:10005000DD180000DD180000DD180000DD180000CC
:10006000DD180000DD180000DD180000DD180000BC
:10007000DD180000DD180000DD180000DD180000AC
:10008000DD180000DD180000DD180000DD1800009C
:10009000DD180000DD180000DD180000DD1800008C
:1000A000DD180000DD180000DD180000DD1800007C
:1000B000DD180000DD180000DD180000DD1800006C
:1000C000DD180000DD180000DD180000DD1800005C
:1000D000DD180000DD180000DD180000DD1800004C
:1000E000DD180000DD180000DD180000DD1800003C
:1000F000DD180000811D0000DD18000079220000DD
:10010000DD18000095260000DD180000DD18000055
:10011000DD180000DD180000DD180000DD1800000B
:10012000DD180000DD180000DD180000DD180000FB
:10013000DD180000DD180000DD180000DD180000EB
:10014000DD180000DD180000DD180000DD180000DB
:10015000DD180000DD180000DD180000DD180000CB
:10016000DD180000B90C0000DD180000DD180000EB
:10017000DD180000DD180000DD180000DD180000AB
:10018000DD180000DD180000DD180000DD1800009B
:10019000DD180000DD180000DD180000DD1800008B
:1001A000DD180000DD180000DD180000DD1800007B
:1001B000DD180000DD180000DD180000574B4CF280
:1001C000205210B51A804DF628121A8000BF00BFC9
:1001D00001F088FB524B4FF010621A60514A9A604E
:1001E000514ADA60A3F53043203B1A6812F480725A
:1001F00004D14E490A604FF4A8521A604C4B1A7849
:10020000110703D51A7842F008021A70494B4A4C7C
:100210004A482A221A704A4A00239918A14203D256
:10022000195899500433F8E7464B474900228B424E
:1002300002D243F8042BFAE74448454900235A58B0
:100240001A500433B3F5DE7FF9D1424B424A802184
:1002500003F8011B9342FBD1404B3C4A1A60404BD0
:100260000A221A70A3F5805324225A70A0221A7011
:100270009A799207FCD59A79D406FCD4394A9379B5
:1002800003F00C03082B374BF9D103221A714022DB
:100290005A719A799006FCD5324A9179314B4906C8
:1002A000FBD5314A314911600221516020221A7078
:1002B0009A7902F00C020C2AFAD12D4B2D4A1A60C1
:1002C0002D4B2E4A1A6000225A60072243F8042C54
:1002D0002B4AC3F80C2D62B600F0B0FB134B1B6821
:1002E000DA0705D5274800F01DFB274B274A1A607F
:1002F000274B1B785B0609D5234C244A236893427D
:1003000004D1204800F00EFB0023236002F0F8FB2C
:1003100001F0EEFA01F010FAFEE700BF0E200540F2
:1003200030800440823F04000100002B14D00340C1
:1003300002D0074000E007404C90FF1F203700002C
:100340006087FF1F4C90FF1F6895FF1F0082FF1FF3
:100350000000000000E400E05FE400E008ED00E0E1
:100360000050064000400640448004400000030165
:1003700004800440C010050014E000E0FF76010096
:100380000000202055115B561CE00340A5C3945A81
:1003900000F00740FFFFFFFFFFFFFFFFFFFFFFFF32
:1003A000FFFFFFFFFFFFFFFFFFFFFFFFFFFFFFFF5D
:1003B000FFFFFFFFFFFFFFFFFFFFFFFFFFFFFFFF4D
:1003C000FFFFFFFFFFFFFFFFFFFFFFFFFFFFFFFF3D
:1003D000FFFFFFFFFFFFFFFFFFFFFFFFFFFFFFFF2D
:1003E000FFFFFFFFFFFFFFFFFFFFFFFFFFFFFFFF1D
:1003F000FFFFFFFFFFFFFFFFFFFFFFFFFFFFFFFF0D
:10040000FFFFFFFFFFFFFFFFFFFFFFFFFEFFFFFFFD
:1004100010B5054C237833B9044B13B10448AFF33E
:1004200000800123237010BD4C90FF1F00000000CE
:100430002037000008B5064B1BB106480649AFF34C
:1004400000800648036813B1054B03B1984708BD07
:1004500000000000203700005090FF1F4C90FF1F4D
:100460000000000008B50E20002100F08FFA0120E6
:10047000014600F08BFA0020012100F087FA08BD48
:1004800038B505460120014600F05CFA4FF4C86417
:100490002346013B7FF4FDAF0020014600F052FAF5
:1004A0000E2000F09DF9084B83FB0023C017C0EB22
:1004B000E300064B43F82500013C7FF4FDAF01202B
:1004C000002100F03FFA38BD1F85EB516890FF1FF7
:1004D0002DE9F041012500242646A8464FF4C867BF
:1004E00001E0013401355CB93046414600F02AFA9A
:1004F0003B46013B7FF4FDAF3046FFF7C1FFF0E71D
:100500002046FFF7BDFF7F2DEBDDBDE8F08100BF8A
:100510002DE9F04F83B0FFF7DBFF0120014600F02B
:1005200011FA0120002100F00DFA4FF0090ADFF85E
:1005300084B01F4DDFF88490DFF8848019E054F810
:10054000043B092BC4BF092344F8043C54F8043C81
:10055000BB422B685B682846ACBF49464146012236
:100560009847B442EBD1284601F0EEF8BAF1010AFF
:1005700006D057465C460F4B01930BF50076DEE73D
:100580000D4C019B03F5FE76094D284654F8041FD7
:1005900001F026F9B442F8D14FF4F063013B7FF447
:1005A000FDAF034801F0D0F803B0BDE8F08F00BF05
:1005B0006893FF1F6890FF1F6490FF1F5434000072
:1005C0005834000030B4394A3949136813F0800FA9
:1005D000FBD10B6813F0800FF7D172B6354B1B7847
:1005E000002B5FD0344B1C6804331D68043318683B
:1005F0000433196804331A6804331B682C442044FC
:1006000001440A441A44C2F34E0242F400422B4B06
:100610001A602C331C6804331D68043318680433D3
:10062000196804331A6804331B682C4420440144BD
:100630000A441A44C2F34E0242F40042204B1A60AC
:1006400003F108131C6804331D680433186804336D
:10065000196804331A6804331B682C44204401448D
:100660000A441A44C2F34E0242F40042154B1A6087
:100670002C331C6804331D6804331868043319686C
:1006800004331A6804331B682C44204401440A4490
:100690001A44C2F34E0242F400420B4B1A6000228D
:1006A000044B1A7062B630BC704700BF24B00340E0
:1006B00024B00B406992FF1F38B003402CB00340B8
:1006C00030B003402CB00B4030B00B4060223A4BAE
:1006D0001A70E12201331A70384B1B78082B10D1A5
:1006E000012203F1804303F56C331A60132334496C
:1006F0000B6001F5FF2101F2FC710A60314A1360C1
:100700001FE00A2B0DD139222F4B1A6013232C49DD
:100710000B6001F5FF2101F2FC710A60294A1360A8
:100720000FE00C2B0CBF35223D22274B1A60122301
:1007300023490B6001F5FF2101F2FC710A60214A97
:100740001360224B1B7833B10123214A136002F559
:100750000022136005E000231D4A136002F5002209
:1007600013601C4B1B78012B06D880231A4A136098
:1007700002F5002213601AE0042B06D88423164ADF
:10078000136002F50022136011E0082B06D88523C0
:10079000114A136002F50022136008E0102B94BF89
:1007A000862387230C4A136002F50022136001227E
:1007B0000A4B1A70704700BF004007406087FF1F58
:1007C0000CB003400CB00B4008B003406C92FF1F0C
:1007D00020B003406187FF1F24B003406992FF1FD0
:1007E0002DE9F8430D2813D9172802D80E38C0B2C6
:1007F0000EE0A0F11A03DBB2052B02D80938C0B213
:1008000006E0A0F12203DBB2062B73D81838C0B281
:100810003A4B1E5C3A4B1B780BB1FFF7D3FE16F038
:10082000800F29D172B6374C374D4FF00107266043
:100830002F7062B672B6236813F0800F04D12B7844
:1008400013F0FF0F0FD1F2E7304B186800222E4B48
:100850001A7062B62E4B1B781841BDE8F8832B78CE
:1008600013F0FF0FE3D062B600F0F0FF72B623681A
:1008700013F0800FF3D0E7E772B606F040095FFA95
:1008800089F9244F244C06F03F06244D4FF001080F
:10089000B9F1000F04D03B6823F010033B6003E084
:1008A0003B6843F010033B60266085F8008062B629
:1008B00072B6236813F0800F04D12B7813F0FF0F6A
:1008C0000FD1E5E7164B18680022144B1A7062B678
:1008D0000F4B1B781841BDE8F8832B7813F0FF0FFE
:1008E000D6D062B600F0B2FF72B6236813F0800F64
:1008F000F3D0E7E70020BDE8F88300BF5C340000D8
:100900006992FF1F00B003406B92FF1F10B00340BD
:100910006892FF1F0CB00B4000B00B406A92FF1FA3
:1009200010B00B40044B00221A6004490A60044ACC
:10093000106010221A60704714D0034004D00340A6
:1009400000D0034021281ED80F4B53F8303093F8C5
:10095000802212F0FF0F08D019B1012283F8802005
:100960007047012283F800217047074B03EBC0005A
:10097000436821B11A6842F003021A6070471A688E
:1009800022F002021A6070477434000021281CD83B
:100990000E4B03EBC0035B68012908D10B4A52F8E8
:1009A000302082F880124FF4A2721A607047074A12
:1009B00052F83020002082F8800219B94FF480727A
:1009C0001A60704740F203121A60704774340000D6
:1009D00072B60C4B1B680C4A12680C49096862B667
:1009E00011F0806F02D0322B88BF0132C3F5BB33C8
:1009F000FF330749A1FB03039B094FF47A7000FB07
:100A00000230704718E000E07092FF1F04ED00E034
:100A1000ABAAAAAA38B50546FFF7DAFF044665B1C6
:100A2000FFF7D6FF001BB0F57A7F03D3013D04D05A
:100A300004F57A7400F00AFFF2E738BD10B5254BD3
:100A40004FF400021A604FF080721A604FF000728B
:100A50001A604FF080621A604FF000621A60002046
:100A60001D4B18604BF6FF710433196028231B4A95
:100A700013600832136008321360083213600832C2
:100A800013600832136008321360083213600922C1
:100A9000134C226004F58054043420600434216037
:100AA0000434236008342360143C226004F5FE24DF
:100AB000043420600B4801600B490B6008310B6067
:100AC0000A4B1A60FFF702FE0420FFF7A3FF00F0B5
:100AD0006BFC10BD08E100E0048003400C80034083
:100AE0000080034008800B400C800B4000800B40CE
:100AF00030B40E4B1B7843F002020D4C04EBC204E1
:100B000060600C48007800280CBF8824C82444EAA0
:100B10000141074D45F8321080F00100054A107080
:100B200083F00103014A137030BC7047DC92FF1F51
:100B30000080FF1F5593FF1F10B4431E032B11D8D5
:100B400072B60A4A52F8230050B14268074941F888
:100B50002320074A32F813400188611A22F8131043
:100B600062B600E000205DF8044B7047CC92FF1F96
:100B70005495FF1F013803280DD872B6074B53F860
:100B800020302BB1002001305B68002BFBD100E04E
:100B9000002062B670470020704700BF2093FF1FFF
:100BA00038B572B601231B491B4C5A1812F8012C98
:100BB00012F0080F24D09A0054F832506DB9164B39
:100BC00003EBC20108304860144943F83210144B5B
:100BD0001A78013A1A7062B638BD42F0010254F830
:100BE00032506DB90C4B03EBC201083048600D491F
:100BF00043F832100A4B1A78013A1A7062B638BDBF
:100C00000133052BD1D162B60022054B1A7000F0DA
:100C10002FFC38BDA83500000080FF1F8800400071
:100C20004A93FF1FC800400010B4431E032B37D85F
:100C3000400140F010001C4A104472B61B4AD25CBE
:100C4000032A09D8DFE802F019021B050830022246
:100C500016E00830042213E0154A52F823201AB98E
:100C6000134A42F8231003E0124A52F8232051603D
:100C7000104A42F8231062B612E0032200E0052277
:100C80000A4CE25401F10803436000F00803002B12
:100C90000CBF8823C8230A8843EA0243036062B674
:100CA0005DF8044B704700BF0080FF1F8892FF1F54
:100CB0002093FF1F3093FF1F2DE9F84FA34CDFF85F
:100CC000E092DFF8E0A2DFF8E0B22578EDB215F0AF
:100CD000040F1DD09E4B1B7813F0FF0F16D09D4BB9
:100CE0001B7803F0FF022BB1531EDBB2994A13703D
:100CF00003B900BE984B1B7803F0FF0233B1531EBB
:100D0000DBB2954A13700BB900F0F2FC0423237098
:100D100015F0080F00F0DC8299F80030DBB21D09F5
:100D200040F01D828D4D9E0805EBC6035A6855F8AC
:100D30003630C3F38303013B0C2B00F20C82DFE857
:100D400013F0C701C7010A020A020A020A020A02D4
:100D50000A02E4010A020A020A020D00804913682D
:100D60000B6052684A607F4A45F8362000227E496F
:100D70000A607A490A618A6101217C4A11709BB23A
:100D800040F28162934218D8B3F5D06F2ED2B3F5FA
:100D9000817F00F01E8106D8802B00F0C980822B55
:100DA00000F0CC8062E140F20232934200F02681F2
:100DB000B3F5A06F00F05E8158E142F22102934248
:100DC00000F0828107D8B3F5086F00F0AB80B3F56F
:100DD000106F11D04AE142F22122934200F041818A
:100DE00042F22132934200F045813FE1604B5D6861
:100DF000002D40F0188130E1594B9A78544B1A700D
:100E0000564D05F180062B6A13F0800F03D0686AF7
:100E1000083800F02DFB0835B542F4D1DFF88C819D
:100E200000263746534AB05828B1456800F020FBE9
:100E30000DB12846F9E700234E4973504E4AB3508E
:100E40004E4BF05828B1456800F012FB0DB1284612
:100E5000F9E7002349497350494AB35028F8023F43
:100E6000484BFB5C023B032B0AD8DFE803F0020689
:100E700002060022434BDA5502E00122414BDA55CB
:100E800001370436102ECDD100223F4B1A700125B8
:100E90003E4EDFF81C81314F05EB080313F8013C8F
:100EA00006F8043B13F0080F2DD000F0C1FA48B14A
:100EB000A90007EB451200F108035360344A47F8D4
:100EC000312007E0AB00002247F833202E4B1A7880
:100ED00001321A7000F0ACFA58B1AB0043F00103D4
:100EE00007EBC30100F108024A601E4A47F83320AD
:100EF00009E0AB0043F00103002247F83320224B06
:100F00001A7801321A70AA0042F00201002347F851
:100F1000313042F0030247F8323001351D4B9E421A
:100F2000BAD116E20A4B1B781B4D2B700127A6E0A5
:100F3000194D00232B706B700227A0E0084B9B8893
:100F4000042B37D90F22154B1A70BDE080200740C3
:100F50005493FF1FDD92FF1F5693FF1F0080FF1F5A
:100F60004093FF1FC80040007492FF1F5593FF1F5E
:100F7000AC350000CC92FF1F7892FF1F2093FF1F1B
:100F80003093FF1F8892FF1F4A93FF1FC420074022
:100F900088004000D42007404C93FF1FC02007402A
:100FA0009020074094200740982007405295FF1F4B
:100FB000A83500009E4A0021117051709D4A12F818
:100FC000233013F0020F58D0994D01232B700227C4
:100FD00055E0994B9B8803F07F02042A02DC964A75
:100FE00052881AB10F22934B1A706DE0914A12F891
:100FF000231021F0020102F82310AAE18E4B9B88F6
:1010000003F07F02042A02DC8B4A52881AB10F22B5
:10101000884B1A7058E0874A12F8231041F00201F9
:1010200002F8231095E1844B5E889F88834BA3F1DF
:101030000C02114633F80C0CB04209D133F80A0CFB
:10104000B84205D1360A032E0CBF2F78178916E057
:101050000D690C330C32002DEBD10F22754B1A7039
:1010600032E0754B9A78764B1A7072E10F22714B11
:101070001A7029E000273D4601E002276C4D6E4BB7
:10108000DB889F4228BF1F46402F34BF3E46402684
:1010900028463146FFF72CFD3544BF1B03D13F2EB8
:1010A00000F25C8110E0402F34BF3E4640262846C7
:1010B0003146FFF71DFD3544BF1B01D13F2E03D93B
:1010C000604B1D60604B1F8001238AF8003042E0B6
:1010D000594B198842F22103994212D15B4BD81D1A
:1010E00012F8011B03F8011F8342F9D1584B1B680A
:1010F000862B02D10F22574B1A7000200146FFF7B2
:10110000F7FC554B45F8363025E04E4B1E68BEB116
:101110004D4FB7F80080B8F1400F34BF4546402529
:1011200030462946FFF7E4FCC5EB08039BB23B8041
:101130000BB9402D01D1354400E00025414B1D6025
:101140003D4B1B88B3F5A06F05D13B4B00225A7075
:101150009B788BF8003001238AF80030B5E03F4ED1
:101160009F0806EBC708D8F80420A2F10800013D4B
:10117000EDB213F0080F47D000F07AF9384B53F86E
:1011800025304BB35A68364941F8252003F108024F
:10119000C8F80420334A525D032A12D8DFE802F06F
:1011A00002060A0E03212F4A51550AE002212D4A58
:1011B000515506E005212B4A515502E00421294AE8
:1011C000515518F0080F0CBF8822C8221B8842EA2C
:1011D000034346F8373078E0224B5B5D032B0BD896
:1011E000DFE803F07373020600221E4B5A556CE0D1
:1011F00001221C4B5A5568E018F0080F0CBF022260
:101200000322184B5A5560E056F837301B0C22F871
:10121000083C002B51D0002322F8063C42F8043C45
:10122000114B53F825300BBB0F4B43F8250021E041
:101230004C93FF1FC02007404093FF1FB8350000AC
:101240006493FF1F7492FF1F4893FF1F5B95FF1F5E
:101250005C95FF1FDD92FF1FC80040000080FF1F4C
:101260002093FF1F8892FF1FCC92FF1F3F4B53F824
:10127000253058603D4B43F825003D4B33F81510A1
:1012800032F8082C0A4423F8152000F0D1F860B198
:1012900000F10803C8F8043018F0080F354B364A3F
:1012A00008BF134646F837300FE0002346F83730C2
:1012B000324B1A7801321A7007E018F0080F2D4BE4
:1012C0002D4A08BF134646F8373008232370FCE444
:1012D00015F0010F22D02A4902230B700022294B5E
:1012E0001A70294B24481860284C5C609860284884
:1012F000D8601A619A610D20264B1870FF2326488A
:1013000003700838037018300270244A13709F224B
:10131000234B1A7001230B70BDE8F88F15F0800F76
:1013200005D00D221B4B1A708022403B1A7015F01D
:10133000020F06D0184B1A78D2B21A700222083B5C
:101340001A7015F0100F0ED01022164B1A70BDE84F
:10135000F88F00200146FFF7CBFBB5E628460021B9
:10136000FFF7C6FBB0E6BDE8F88F00BF7892FF1F1D
:101370005495FF1FC8004000880040004A93FF1F9B
:1013800094200740DC92FF1F0080FF1F8C92FF1FFC
:10139000E092FF1FC0200740882007408C200740B4
:1013A000842007408020074008B501F0D3F90023CE
:1013B0001B491A465A50C81842600833882BF9D185
:1013C000184B1A6842F480221A60154BC3F30721A8
:1013D000154A1170C3F30741143211701B0E043209
:1013E0001370FF23343A137008321370783A137075
:1013F00001238432137000216C3211707C3A137017
:1014000070220A4B1A704FF40072A3F241331A6033
:10141000102203F1C04303F5C8231A7008BD00BFB2
:101420000080FF1F348004409C20074049E400E016
:1014300072B60D4B1A68B2FA82F30B2B02D962B660
:10144000002070474FF00041D94022EA01020649CE
:101450000A6062B6054903EBC303DB00C81800222B
:10146000CA504260704700BF6487FF1F0084FF1F9F
:1014700008B50F4BC31A0F4AA2FB03131B090B2B12
:1014800014D80D4A12783AB10C4A127812F0FF0FB4
:1014900002D0FFF785FB08BD72B6094A4FF0004144
:1014A00021FA03F311681943116062B608BD00BF49
:1014B0000084FF1F398EE3384A93FF1F5493FF1FA8
:1014C0006487FF1F10B5134B1B6853B9124B1B7871
:1014D00013F0FF0F18D00320FFF72EFB0D4B186001
:1014E000A8B10C4B186843885A1C03441C7A038823
:1014F0009A4206D3FFF7BCFF0022064B1A60204633
:1015000010BD4280204610BD4FF0FF3010BD4FF09F
:10151000FF3010BD6093FF1F5493FF1F08B50D4BA4
:101520001B6883B90C4B1B7813F0FF0F08D0032006
:10153000FFF702FB074B186028B94FF0FF3008BDDA
:101540004FF0FF3008BD034B1B685A881344187ACC
:1015500008BD00BF6093FF1F5493FF1F044B988882
:10156000044B1B681BB11A885B88D31A1844704758
:101570005495FF1F6093FF1F2DE9F0470446012299
:10158000374B1A700E46002964D0DFF8E080DFF890
:10159000E0909A46334FD8F8003083BB99F800307A
:1015A00013F0FF0F06D100222D4B1A704FF0FF30C1
:1015B000BDE8F0874AF2F9250420FFF7DBFA072897
:1015C0000AD801238AF80030FFF732FFC8F800007C
:1015D000A8B900238AF80030013D01D03B7833B12F
:1015E0000122204B1A704FF0FF30BDE8F08700F069
:1015F0002DF999F8003013F0FF0FDDD1D3E7002368
:101600003B70D8F800104A88C2F14005AE4238BF9E
:10161000354602F108030B442A444A80761B3DB14B
:10162000254414F8012B03F8012BAC42F9D100E05A
:1016300025464B883F2B07D940230B800420FFF71A
:10164000F3FA0023C8F800300522074B1A700EB1D8
:101650002C46A0E70020024B1870BDE8F08700BFC1
:101660005793FF1F5C93FF1F5693FF1F5893FF1F55
:101670005493FF1F00B583B002AB03F8010D184669
:101680000121FFF779FF03B05DF804FB10B5144B9F
:101690001B7813F0FF0F21D00122124B1A70124B4E
:1016A000196851B10024114B1C704B880B80042029
:1016B000FFF7BAFA0C4B1C600DE0FFF7B9FE0146CC
:1016C00030B10022094B1A700420FFF7ADFA02E096
:1016D0000122064B1A700022024B1A7010BD00BF87
:1016E0005493FF1F5793FF1F5893FF1F5693FF1FDD
:1016F00008B50E4B1B7813F0FF0F16D10C4B196871
:1017000041B14B880B800420FFF78EFA0022084B72
:101710001A6008BDFFF78CFE014618B10420FFF7E0
:1017200083FA08BD0122034B1A7008BD5793FF1FAF
:101730005893FF1F5693FF1F08B5FEF793FEFEF761
:10174000E7FE00F083F8FAE700B583B0054B1B888D
:10175000ADF8043003685B6801A90222984703B022
:101760005DF804FB84350000F0B58BB0164622B955
:1017700003681B68C9B298472FE0012A08BF0A26F0
:1017800021B930228DF82520212417E02124374665
:10179000B1FBF6F506FB1515EDB22246092D94BFF7
:1017A00030353735EDB20DF1280E724402F8245C65
:1017B000B1FBF7F111B1013CE4B2E9E733B1013C0F
:1017C000E4B20AAB23442D2203F8242C03685B689F
:1017D00001A92144C4F1220298470BB0F0BD00BF1B
:1017E00008B50029BABF49422D2300230A22FFF77A
:1017F000BBFF08BD08B5FFF7B1FE08BD08B5FFF790
:1018000061FE08BD08B5FFF789FE08BD08B5FFF702
:101810003DFF08BD08B50846FFF72CFF08BD00BF17
:1018200008B508461146FFF7A7FE08BD704700BF80
:10183000044B00221A714FF47A7199601A73024AAC
:101840001A6070476893FF1F9035000008B50F4B72
:101850001B78CBB901220D4B1A70FFF77FFE08B140
:10186000FFF7E4FF00F028FA08B101F02DF800F0CE
:101870009FFC08B101F0AEF800F0BCFE08B101F029
:101880002FF90022014B1A7008BD00BF7893FF1F8B
:10189000024B1A6801321A60704700BF7092FF1F36
:1018A00008B50D4C236813F4802F01D0FFF704FA1C
:1018B000236813F4806F01D000F062FA236813F4F8
:1018C000006F01D000F0D8FC236813F4805FE9D0EA
:1018D00000F0E0FEE6E700BF3480044008B5FFF703
:1018E000DFFF00BF1022014B1A8070470020054027
:1018F000704700BF024A13681844106018467047CA
:101900006887FF1FEFF31383ABB9EFF31083ABB915
:10191000EFF3058323B10F2B05D9094A985C03E047
:101920004FF4807000E00020EFF311833BB183425D
:1019300038BF184670474FF0FF307047002070479F
:10194000F0E300E030B40023B0FBF2F402FB140437
:101950001D46092C94BF30343734E4B2CC54B0FB6C
:10196000F2F008B10133EFE70D4400226A709342B0
:1019700007DD885CCC5C8C54C8540132013B9A4230
:10198000F7DB084630BC7047194B1A6842F4806296
:101990001A600023174A1370174A1370174A1370FE
:1019A000174A1370174A137040F21332164B1A601D
:1019B0004FF4517204331A60C0F34432134B1A705F
:1019C000C0F347125A7000F01F00987204229A70F8
:1019D0000221D9745A7588221A743C22DA70402286
:1019E0000B4B1A704FF40052A3F229331A60704760
:1019F00034800440FC93FF1F7A93FF1F0494FF1F61
:101A0000FD93FF1F7993FF1F40A0044000A00640F4
:101A10002DE400E0164B9B7803F0EC0300F003028A
:101A2000134310F0040F18BF43F01003104A9370D3
:101A300000F00F03042B04D11346927942F04002C8
:101A40009A710B4B5A7902F0EF0210F0100F18BF89
:101A500042F01002064B5A719B7903F0EF0310F02D
:101A6000200F18BF43F01003014A9371704700BF65
:101A700000A0064010B5114B1B6813F4806F1CD0FA
:101A80000F4B1B7813F0FF0F06D00D4CFFF7DEFE57
:101A9000237813F0FF0FF9D14FF40052094B1A606D
:101AA0000023094AD37040F2031208490A60043146
:101AB0000A60074A1370074A137010BD348004404F
:101AC0007993FF1F84E100E000A0064040A004409D
:101AD000FC93FF1F7A93FF1F10B50446094A137841
:101AE00013F0FF0FFBD120460121FEF74FFF2046E8
:101AF0000021FEF727FF044B53F83420034B1A60F4
:101B000010BD00BF7993FF1F743400000094FF1FC5
:101B10002DE9F04107461F4B1B6813F4806F37D047
:101B20001D4B1B680BB101221A701C4B1C78013431
:101B3000402C28BF00241A4D1A4EDFF86C8017E0A5
:101B4000FFF7E0FE40280FDC337913F0800F0FD051
:101B50002B780133402B28BF002318F80320D2B282
:101B6000F271DBB22B7003E0FF2801DDFFF76EFEA0
:101B70002B78DBB29C42E3D0FFB20B4B1F55012206
:101B80000A4B1A70E4B2054B1C70BC22054BDA708C
:101B9000BDE8F081348004400094FF1F0494FF1FCF
:101BA000FD93FF1F00A006407C93FF1F7993FF1F4A
:101BB0002DE9F84F0746284B1B6813F4806F49D076
:101BC000264B1B680BB101221A7007EB010B5F4516
:101BD0003DD2DFF89890224EDFF88C80DFF890A09D
:101BE00099F800400134402C28BF00243578EDB22C
:101BF000A54220D1BC2388F80330FFF783FE40289C
:101C000011DC98F8043013F0800F10D033780133D2
:101C1000402B28BF00231AF80320D2B288F80720EF
:101C2000DBB2337003E0FF2801DDFFF70FFE3378EE
:101C3000DBB29D42E1D017F8013B0AF804300122E3
:101C4000084B1A70E4B289F800405F45C8D1BC2245
:101C5000054BDA70BDE8F88F348004400094FF1F14
:101C6000FD93FF1F7993FF1F00A006400494FF1F00
:101C70007C93FF1F10B5064B1B7813F0FF0F06D0A7
:101C8000034CFFF7E3FD237813F0FF0FF9D110BDEC
:101C90007993FF1F064B1B78DBB2064A1278D2B24B
:101CA00093422CBF3F3202F1FF32D01A704700BF7F
:101CB0000494FF1FFD93FF1F054B1878C0B2054B1E
:101CC0001B78DBB2984238BF4030C01A704700BF63
:101CD000FC93FF1F7A93FF1F0A4B1A78D2B20A4B6C
:101CE0001B78DBB29A4209D00133402B28BF002376
:101CF000064AD05CDBB2044A137070474FF0FF30E5
:101D0000704700BFFC93FF1F7A93FF1FBC93FF1F18
:101D1000094B1A78D2B2094B1B78DBB29A4207D032
:101D20000133402B28BF0023054AD05CC0B2704766
:101D30004FF0FF30704700BFFC93FF1F7A93FF1FE7
:101D4000BC93FF1F0A4B1B6813F4806F0FD0094B25
:101D5000DA7802F0CB02DA7040225A74DA7842F074
:101D60003402DA70044B1A78D2B2044B1A707047FE
:101D70003480044000A006407A93FF1FFC93FF1FAD
:101D800070B4364B1B7913F0300F25D072B6334B3D
:101D90009B7D03F0FF022BB9304BDA7940225A7455
:101DA00062B619E062B62E4B1978C9B22D4B1D7878
:101DB000EDB22A4C2C4EE379D8B24B1C402B28BFF5
:101DC0000023AB421CBFF0541946531E13F0FF0210
:101DD000F1D1C9B2224B1970204BDA78D2B212F08D
:101DE000800F27D01B7913F0800F23D01F4B1C7856
:101DF000E4B21F4B1B78DBB29C4210D017491D4D3B
:101E000001E0A3420BD00133402B28BF0023087907
:101E1000E85CC0B2C871087DC0B20728F1D9DBB256
:101E200013490B700D4B1B7913F0800F02D07C21EE
:101E30000A4BD97012F0400F0ED0084B1B7913F0EB
:101E4000400F09D000220C4B1A700C4B1B6803B1D9
:101E50001A703C22014BDA7070BC704700A006403B
:101E6000FC93FF1F7A93FF1FBC93FF1F0494FF1F77
:101E7000FD93FF1F7C93FF1F7993FF1F0094FF1FAB
:101E8000194B1A6842F400621A600023174A137053
:101E9000174A1370174A1370174A1370174A1370B2
:101EA00040F21332164B1A604FF4517204331A6029
:101EB000C0F34432134B1A70C0F347125A7000F04B
:101EC0001F00987204229A700221D9745A758822D0
:101ED0001A743C22DA7040220B4B1A704FF4004205
:101EE000A3F22B331A607047348004407094FF1FB4
:101EF0000694FF1F7894FF1F7194FF1F0594FF1F26
:101F00000CB0044000B006402FE400E0164B9B7874
:101F100003F0EC0300F00302134310F0040F18BFAA
:101F200043F01003104A937000F00F03042B04D108
:101F30001346927942F040029A710B4B5A7902F0A3
:101F4000EF0210F0100F18BF42F01002064B5A714A
:101F50009B7903F0EF0310F0200F18BF43F010033C
:101F6000014A9371704700BF00B0064010B5114B95
:101F70001B6813F4006F1CD00F4B1B7813F0FF0F7E
:101F800006D00D4CFFF762FC237813F0FF0FF9D158
:101F90004FF40042094B1A600023094AD37040F203
:101FA000031208490A6004310A60074A1370074A9D
:101FB000137010BD348004400594FF1F84E100E0DD
:101FC00000B006400CB004407094FF1F0694FF1F41
:101FD00010B50446094A137813F0FF0FFBD12046D1
:101FE0000121FEF7D3FC20460021FEF7ABFC044B99
:101FF00053F83420034B1A6010BD00BF0594FF1F37
:10200000743400007494FF1F2DE9F04107461F4B04
:102010001B6813F4006F37D01D4B1B680BB10122F6
:102020001A701C4B1C780134282C28BF00241A4D30
:102030001A4EDFF86C8017E0FFF764FC40280FDCD5
:10204000337913F0800F0FD02B780133282B28BF62
:10205000002318F80320D2B2F271DBB22B7003E038
:10206000FF2801DDFFF7F2FB2B78DBB29C42E3D0C7
:10207000FFB20B4B1F5501220A4B1A70E4B2054BFD
:102080001C70BC22054BDA70BDE8F081348004403E
:102090007494FF1F7894FF1F7194FF1F00B00640D7
:1020A0000894FF1F0594FF1F2DE9F84F0746284BA2
:1020B0001B6813F4006F49D0264B1B680BB101223B
:1020C0001A7007EB010B5F453DD2DFF89890224E66
:1020D000DFF88C80DFF890A099F800400134282CBC
:1020E00028BF00243578EDB2A54220D1BC2388F862
:1020F0000330FFF707FC402811DC98F8043013F098
:10210000800F10D033780133282B28BF00231AF812
:102110000320D2B288F80720DBB2337003E0FF2837
:1021200001DDFFF793FB3378DBB29D42E1D017F876
:10213000013B0AF804300122084B1A70E4B289F816
:1021400000405F45C8D1BC22054BDA70BDE8F88F6E
:10215000348004407494FF1F7194FF1F0594FF1F87
:1021600000B006407894FF1F0894FF1F10B5064B7F
:102170001B7813F0FF0F06D0034CFFF767FB2378A3
:1021800013F0FF0FF9D110BD0594FF1F064B1B780C
:10219000DBB2064A1278D2B293422CBF273202F148
:1021A000FF32D01A704700BF7894FF1F7194FF1F51
:1021B000054B1878C0B2054B1B78DBB2984238BF8C
:1021C0004030C01A704700BF7094FF1F0694FF1F75
:1021D0000A4B1A78D2B20A4B1B78DBB29A4209D06A
:1021E0000133402B28BF0023064AD05CDBB2044AEF
:1021F000137070474FF0FF30704700BF7094FF1F9F
:102200000694FF1F3094FF1F094B1A78D2B2094B76
:102210001B78DBB29A4207D00133402B28BF002342
:10222000054AD05CC0B270474FF0FF30704700BF26
:102230007094FF1F0694FF1F3094FF1F0A4B1B680A
:1022400013F4006F0FD0094BDA7802F0CB02DA708A
:1022500040225A74DA7842F03402DA70044B1A7869
:10226000D2B2044B1A7070473480044000B006406C
:102270000694FF1F7094FF1F70B4364B1B7913F048
:10228000300F25D072B6334B9B7D03F0FF022BB984
:10229000304BDA7940225A7462B619E062B62E4B9E
:1022A0001978C9B22D4B1D78EDB22A4C2C4EE3792A
:1022B000D8B24B1C402B28BF0023AB421CBFF054AC
:1022C0001946531E13F0FF02F1D1C9B2224B197007
:1022D000204BDA78D2B212F0800F27D01B7913F09E
:1022E000800F23D01F4B1C78E4B21F4B1B78DBB24E
:1022F0009C4210D017491D4D01E0A3420BD0013381
:10230000282B28BF00230879E85CC0B2C871087D7B
:10231000C0B20728F1D9DBB213490B700D4B1B7902
:1023200013F0800F02D07C210A4BD97012F0400FBD
:102330000ED0084B1B7913F0400F09D000220C4B34
:102340001A700C4B1B6803B11A703C22014BDA70F7
:1023500070BC704700B006407094FF1F0694FF1FCA
:102360003094FF1F7894FF1F7194FF1F0894FF1F84
:102370000594FF1F7494FF1F174B1A6842F4805294
:102380001A600023154A1370154A1370154A13700A
:10239000154A1370154A137040F21331144A116034
:1023A0004FF4517104321160C0F34431114A11707D
:1023B000C0F34711517000F01F00907293701374B6
:1023C0002C23D37040220C4B1A704FF40032A3F22E
:1023D0002D331A60704700BF34800440E494FF1F1F
:1023E0007A94FF1FEC94FF1FE594FF1F7994FF1F61
:1023F00008C0044000C0064031E400E0164B9B7862
:1024000003F0EC0300F00302134310F0040F18BFB5
:1024100043F01003104A937000F00F03042B04D113
:102420001346927942F040029A710B4B5A7902F0AE
:10243000EF0210F0100F18BF42F01002064B5A7155
:102440009B7903F0EF0310F0200F18BF43F0100347
:10245000014A9371704700BF00C0064010B5114B90
:102460001B6813F4805F1CD00F4B1B7813F0FF0F19
:1024700006D00D4CFFF7EAF9237813F0FF0FF9D1DE
:102480004FF40032094B1A600023094AD37040F21E
:10249000031208490A6004310A60074A1370074AA8
:1024A000137010BD348004407994FF1F84E100E074
:1024B00000C0064008C00440E494FF1F7A94FF1F48
:1024C00010B50446094A137813F0FF0FFBD12046DC
:1024D0000121FEF75BFA20460021FEF733FA044B98
:1024E00053F83420034B1A6010BD00BF7994FF1FCE
:1024F00074340000E894FF1F2DE9F04107461F4B9C
:102500001B6813F4805F37D01D4B1B680BB1012291
:102510001A701C4B1C780134282C28BF00241A4D3B
:102520001A4EDFF86C8017E0FFF7ECF940280FDC5B
:10253000337913F0800F0FD02B780133282B28BF6D
:10254000002318F80320D2B2F271DBB22B7003E043
:10255000FF2801DDFFF77AF92B78DBB29C42E3D04C
:10256000FFB20B4B1F5501220A4B1A70E4B2054B08
:102570001C70AC22054BDA70BDE8F0813480044059
:10258000E894FF1FEC94FF1FE594FF1F00C0064076
:102590007C94FF1F7994FF1F38B505460C4629B17E
:1025A00015F8010BFFF7A8FF013CF9D138BD00BFBA
:1025B00010B5064B1B7813F0FF0F06D0034CFFF746
:1025C00045F9237813F0FF0FF9D110BD7994FF1F5F
:1025D000064B1B78DBB2064A1278D2B293422CBF6C
:1025E000273202F1FF32D01A704700BFEC94FF1F70
:1025F000E594FF1F054B1878C0B2054B1B78DBB282
:10260000984238BF4030C01A704700BFE494FF1FA3
:102610007A94FF1F0A4B1A78D2B20A4B1B78DBB2AE
:102620009A4209D00133402B28BF0023064AD05CD0
:10263000DBB2044A137070474FF0FF30704700BFA1
:10264000E494FF1F7A94FF1FA494FF1F094B1A788C
:10265000D2B2094B1B78DBB29A4207D00133402B30
:1026600028BF0023054AD05CC0B270474FF0FF304E
:10267000704700BFE494FF1F7A94FF1FA494FF1FCC
:10268000024B1A78D2B2024B1A7070477A94FF1F2D
:10269000E494FF1F264B1B7913F0200F12D0244B1C
:1026A000DB79D9B2234B1B780133402B28BF0023A1
:1026B000214A1278D2B29A4204D0204AD154DBB2D5
:1026C0001C4A13701A4BDB78DBB213F0800F1CD05E
:1026D000174A127912F0800F17D0194A1178C9B22F
:1026E000184A1278D2B2914203D16C21104AD170AB
:1026F0000BE00132282A28BF00221349885CC0B2AF
:102700000B49C871D2B20F490A7013F0400F0ED0B6
:10271000074B1B7913F0400F09D000220B4B1A70A6
:102720000B4B1B6803B11A702C22014BDA707047F7
:1027300000C00640E494FF1F7A94FF1FA494FF1F7B
:10274000EC94FF1FE594FF1F7C94FF1F7994FF1FFB
:10275000E894FF1F00B585B072B61B4B70221A704B
:1027600041211A4A11700F21013A117080221A700A
:102770001A46137813F0800FFBD0154B186862B619
:10278000144B98429CBF00EB8000400001A90A2234
:10279000FFF7D8F89DF804307BB908E001A9595C2F
:1027A00031B19180023201330A2BF7D100E00023CE
:1027B00001335B00084A137003E0074A538001238A
:1027C000ECE705B05DF804FB0000024007000240A2
:1027D000080002407F969800F887FF1F08B503683D
:1027E0001B68C9B2984708BD08B503681B68C9B221
:1027F000984708BD08B503681B68C9B2984708BD6B
:1028000008B503681B68C9B2984708BD08B54B08EE
:1028100003F1376000F5D830B0FBF1F0FFF7B4F802
:1028200008BD00BF10B514464B0803F1376000F532
:10283000D830B0FBF1F0FFF7A7F82046FFF7EAF831
:1028400010BD00BF08B5FFF715F908BD08B508466B
:10285000FFF742F908BD00BF08B5FFF72DFA08BD24
:1028600008B5FFF755FA08BD08B5FFF735FA08BDFA
:1028700008B5FFF7FFF908BD08B5FFF763FA08BD13
:1028800008B5FFF707FA08BD08B50846FFF740F995
:10289000012008BD08B50846FFF73AF9012008BD38
:1028A00010B5144608461146FFF782F9204610BDC0
:1028B00038B50D46084600F005FC0446284621467A
:1028C000FFF776F9204638BD704700BF044B002261
:1028D0001A714FF47A7199601A73024A1A6070473C
:1028E000F094FF1F0836000008B503681B68C9B2E2
:1028F000984708BD08B503681B68C9B2984708BD6A
:1029000008B503681B68C9B2984708BD08B50368D5
:102910001B68C9B2984708BD08B54B0803F137607A
:1029200000F5D830B0FBF1F0FFF7AAFA08BD00BF00
:1029300010B514464B0803F1376000F5D830B0FBF2
:10294000F1F0FFF79DFA2046FFF7E0FA10BD00BF57
:1029500008B5FFF70BFB08BD08B50846FFF738FBC5
:1029600008BD00BF08B5FFF723FC08BD08B5FFF799
:102970004BFC08BD08B5FFF72BFC08BD08B5FFF7F9
:10298000F5FB08BD08B5FFF759FC08BD08B5FFF712
:10299000FDFB08BD08B50846FFF736FB012008BD62
:1029A00008B50846FFF730FB012008BD10B51446F6
:1029B00008461146FFF778FB204610BD38B50D4696
:1029C000084600F07FFB044628462146FFF76CFBD3
:1029D000204638BD704700BF044B00221A714FF4E7
:1029E0007A7199601A73024A1A6070470095FF1F46
:1029F0005836000008B503681B68C9B2984708BD7F
:102A000008B503681B68C9B2984708BD08B50368D4
:102A10001B68C9B2984708BD08B503681B68C9B2EE
:102A2000984708BD08B54B0803F1B76000F558405A
:102A3000B0FBF1F0FFF7A0FC08BD00BF10B51446D5
:102A40004B0803F1B76000F55840B0FBF1F0FFF719
:102A500093FC2046FFF7D2FC10BD00BF08B5FFF77E
:102A6000FDFC08BD08B50846FFF72AFD08BD00BFFC
:102A700008B5FFF7BFFD08BD08B5FFF7E7FD08BDC6
:102A800008B5FFF7C7FD08BD08B5FFF791FD08BD04
:102A900008B5FFF7F5FD08BD08B5FFF799FD08BDBE
:102AA00008B50846FFF728FD012008BD08B508460F
:102AB000FFF722FD012008BD10B514460846114657
:102AC000FFF76AFD204610BD38B50D46084600F0F8
:102AD000F9FA044628462146FFF75EFD204638BD38
:102AE000704700BF044B00221A714FF47A7199604D
:102AF0001A73024A1A6070471095FF1FA83600002B
:102B000070B50F4E0F4D761BB61007D0043D002454
:102B1000013455F8043F9847A642F9D10A4E0B4DAF
:102B2000761B00F0E9FDB61008D0043D0024013406
:102B300055F8043F9847A642F9D170BD70BD00BF5B
:102B400004370000043700001C3700000437000081
:102B5000024B0146186800F003B800BF388CFF1F15
:102B60002DE9F04F01F10B05162D83B0064627D94C
:102B700035F0070527D4A94225D8304600F08CFA55
:102B8000B5F5FC7F26D2C14F4FEAD50C07EBCC033D
:102B9000DC689C4200F0D2816368E268A16823F09F
:102BA0000303234430465D68CA6045F00105916027
:102BB0005D6000F073FA0834204603B0BDE8F08F82
:102BC0001025A942D9D900240C232046336003B034
:102BD000BDE8F08F5FEA552C00F08A80BCF1040F4D
:102BE00000F260814FEA951C0CF1380C4FEA4C0161
:102BF000A64F07EB8101CC68A14205D10CE0002B68
:102C00007ADAE468A14207D0626822F00302531B1B
:102C10000F2BF4DD0CF1FF3C0CF1010C9B4B3C69DC
:102C200003F1080E744500F07E81616821F0030114
:102C30004A1B0F2A00F36481002AC3F814E0C3F88A
:102C400010E06ADAB1F5007F80F03A81C90803EB41
:102C5000C1004FEAA1085A688168A1604FF00109DC
:102C600009FA08F848EA0202E0605A608460CC6021
:102C70004FEAAC030120984090425BD8024206D153
:102C80002CF0030C400002420CF1040CFAD007EBCC
:102C9000CC084446E146E3689C4207D145E1002A5E
:102CA00080F25681DB689C4200F03F81596821F038
:102CB00003014A1B0F2AF2DD1C46D3F80CC054F85E
:102CC000088F591945F0010942F00105C3F8049035
:102CD0003046C8F80CC0CCF8088079613961C1F879
:102CE0000CE0C1F808E04D608A5000F0D7F963E7C6
:102CF0007E214FF03F0C7BE72244E3685068A168D7
:102D000040F00105CB6030469960556000F0C6F98F
:102D10000834204603B0BDE8F08F214430464B68AC
:102D200043F001034B6000F0B9F90834204603B0CA
:102D3000BDE8F08FBC68636823F00309A94504D39C
:102D4000C5EB09030F2B00F39180514B514A1968D1
:102D50001368013305EB010A04EB090B00F06181F4
:102D60000AF5805A0AF10F0A2AF47F6A2AF00F0A3C
:102D700030465146019200F093F9B0F1FF3F804692
:102D8000019A00F00081834500F2FA80DFF810C15B
:102D9000DCF80030C3455344CCF8003000F04A81E1
:102DA00012683C4901321BBFCBEB080B5B44C1F8F6
:102DB0000080CCF8003018F0070300F01381C3F155
:102DC0000802C3F5805390440833C244CAF30B0A87
:102DD000CAEB030A51463046CDF804C000F060F952
:102DE000431CDDF804C000F03581C8EB00025244FA
:102DF00042F00102DCF80030C7F808805344BC42BE
:102E0000C8F80420CCF80030DFF894A015D0B9F150
:102E10000F0F40F2EA806168A9F10C0222F007026C
:102E200001F0010EA118052042EA0E0E0F2AC4F887
:102E300004E04860886000F21181174ABC6811689C
:102E40008B4288BF1360154A11688B4288BF13609C
:102E5000626822F003029542C5EB020301D80F2BF2
:102E600004DC304600F01AF90024A5E6621943F0AC
:102E7000010345F0010565603046BA60536000F01B
:102E80000DF90834204603B0BDE8F08F3C8CFF1FDD
:102E90002895FF1F4890FF1F2495FF1F2095FF1FB7
:102EA0002C95FF1FBCF1140F61D9BCF1540F00F237
:102EB0008F804FEA153C0CF16E0C4FEA4C0197E6FF
:102EC0004B0A042B58D9142B00F2AE8003F15B029D
:102ED000500007EB8000DFF8BC818368834200F07C
:102EE0008A805A6822F00302914202D29B6898427B
:102EF000F7D1D9687A68E160A3608C60DC60B7E6DE
:102F0000611942F0010745F00105656030465961DD
:102F10001961C1F80CE0C1F808E04F608A5008342C
:102F200000F0BCF848E65A68A2E609F1010919F078
:102F3000030F04F108047FF4AEAE2DE004F10803A2
:102F40006469A34208BF0CF1020C3FF467AE23E6AC
:102F500019441C464868DB6854F8082F40F0010506
:102F60004D603046D3609A6000F098F824E60CF18A
:102F70005B0C4FEA4C013BE68A0938325000A8E767
:102F8000BC423FF403AFBC68626822F0030262E710
:102F9000D8F8008098457BD11CF0030FA8F10803F6
:102FA0000CF1FF3CF4D17B6823EA00037B60400016
:102FB00098423FF6BFAE00283FF4BCAE0342CC4679
:102FC0007FF465AE400003420CF1040CFAD05EE6DB
:102FD000BCF5AA7F1AD84FEAD53C0CF1770C4FEA22
:102FE0004C0105E64FF48053EFE60123C8F80430A6
:102FF000444600222FE791100120D8F8042000FA5F
:1030000001F10A43C8F80420194674E740F254530A
:103010009C451BD84FEA954C0CF17C0C4FEA4C01B7
:10302000E6E50AF1100AA3E6542B1FD80A0B6E320C
:1030300050004EE7CBF30B0100297FF4B1AE0AEB51
:103040000901BA6841F001015160F6E6FC214FF038
:103050007E0CCDE501224FF0000ACBE604F1080119
:10306000304600F0D5F8DAF80030E6E6B3F5AA7F8E
:1030700003D8CA0B773250002BE740F254529342E8
:1030800003D88A0C7C32500023E7FC207E2220E704
:103090007B688CE73C8CFF1F704700BF704700BF08
:1030A00038B5074C0023054608462360FEF722FC8E
:1030B000431C00D038BD2368002BFBD02B6038BDEB
:1030C0006495FF1F20F0030110F00300C0F1000021
:1030D00051F8043B00F1040C4FEACC0C6FF00002F5
:1030E0001CBF22FA0CF213434FF0010C4CEA0C2CDB
:1030F0004CEA0C4CA3EB0C0222EA030212EACC12BB
:1031000004BF51F8043B0430F4D013F0FF0F1FBF8D
:10311000013013F47F4F013013F47F0F18BF0130DB
:10312000704700BF024B13B1024800F005B870476A
:103130000000000045310000014600200246034621
:1031400000F034B938B5094D094C641BA41018BF00
:1031500005EB840505D0013C55F8043D9847002C4B
:10316000F9D1BDE8384000F0D9BA00BF0000000036
:1031700000000000F8B5234D0F460446FFF78CFF12
:10318000AB685E6826F00306F11B01F6EF7121F4CF
:103190007F6121F00F01A1F58057B7F5805F07DB54
:1031A00020460021FFF77CFFAB683344984204D0EF
:1031B0002046FFF773FF0020F8BD20467942FFF755
:1031C0006FFF01300DD0104BAA681968F61B46F04E
:1031D00001062046C91B56601960FFF75FFF0120FA
:1031E000F8BD20460021FFF75BFFAB68C21A0F2A2B
:1031F000DEDD064D04492D6842F00102401B5A6095
:103200000860D5E73C8CFF1F2C95FF1F4890FF1FDF
:103210002DE9F0410D460646002955D0FFF73CFF49
:1032200055F8041CDFF874C121F00103A5F108046E
:10323000E218DCF808005768904227F0030769D0CD
:1032400011F00101576032D00021D0194068C00749
:1032500006D43B44906800294ED0D268C26090608A
:1032600043F001026260E350E1B9B3F5007F2DD372
:103270005A0A042A6AD89809383041000CEB810CAC
:103280004649DCF80820624566D0516821F0030108
:103290008B4202D292689445F7D1D368E360A26072
:1032A0009C60D4603046BDE8F041FFF7F7BE55F8AA
:1032B000085C641B0CF10808A06840452B4443D00F
:1032C000E568C560A860C0E7BDE8F081DB080CEBED
:1032D000C3020125DCF804009168A1609B1005FA87
:1032E00003F31843E260CCF8040094603046CC60ED
:1032F000BDE8F041FFF7D2BE294DA842ADD143F061
:103300000102CCF81440CCF81040E060A06062608C
:10331000E350C7E71F44CB0707D455F8083CE41A2D
:103320001F44A268E368D3609A601E4B1B6847F095
:1033300001029F426260CCF80840B3D31A4B30467A
:103340001968FFF717FFADE701217EE7142A0CD8B3
:1033500002F15B00410091E74B688010012505FAFE
:1033600000F003434B60134698E7542A03D8180B28
:103370006E30410082E7B2F5AA7F03D8D80B7730D0
:1033800041007BE740F254518A4203D8980C7C30CC
:10339000410073E7FC217E2070E700BF3C8CFF1FDB
:1033A000448CFF1F4490FF1F2895FF1FF0B5274C4A
:1033B0002668D6F8484185B00746002C41D065689C
:1033C0001F2D1EDD224818B94FF0FF3005B0F0BDAB
:1033D0004FF4C870039102920193FFF7B9FB039970
:1033E000029A019B04460028EED0D6F84851256089
:1033F000002060600546C6F84841C4F88801C4F85A
:103400008C013FB9AB1C00200135656044F82310E6
:1034100005B0F0BD04EB85004FF0010CC0F888202A
:10342000D4F888610CFA05F21643022FC4F88861BB
:10343000C0F80831E6D1D4F88C311A43C4F88C2195
:10344000E0E706F5A674C6F84841B8E7F436000090
:10345000512B00002A0000002000FFFF050E080984
:103460000D0C06070F04001303931A9217C58584E9
:103470008687C4004008FE4340A004404408FE4341
:1034800044A004400018FE4300C004403000FE4346
:10349000309004403400FE43349004401C18FE4336
:1034A0001CC004401018FE4310C004400818FE431E
:1034B00008C004400C18FE430CC004400C10FE432E
:1034C0000CB004401010FE4310B004401810FE432E
:1034D00018B004401C10FE431CB004401410FE43FE
:1034E00014B004400418FE4304C004400010FE431E
:1034F00000B004400008FE4300A004400408FE435E
:1035000004A004400C08FE430CA004400808FE433D
:1035100008A004401418FE4314C004401818FE43C9
:1035200018C004400410FE4304B004400810FE43D9
:1035300008B004401400FE43149004404C08FE43BD
:103540004CA004400420FE4304D004402410FE4359
:1035500024B004402010FE4320B004402810FE4355
:1035600028B004402C10FE432CB004400020FE4341
:1035700000D004404808FE4348A004401000FE4329
:10358000109004400D0A0000000000000000000040
:103590001518000021180000F5170000FD170000A5
:1035A000051800000D180000001519150001000095
:1035B0006C87FF1F12000000000200009887FF1FA9
:1035C0004300000000030000F487FF1F000000001C
:1035D000010309048087FF1F0000000002030904A3
:1035E000DC87FF1F0000000003030904F887FF1FAA
:1035F00000000000000000000000000000000000CB
:10360000000000000000000089280000A128000040
:103610005928000069280000612800007128000076
:103620000D28000025280000452800004D28000036
:103630007928000081280000DD270000E92700002C
:10364000F527000001280000B1280000952800009F
:10365000000000000000000095290000AD290000D6
:1036600065290000752900006D2900007D290000F2
:1036700019290000312900005129000059290000B2
:10368000852900008D290000E9280000F5280000A8
:10369000012900000D290000BD290000A12900001A
:1036A0000000000000000000A12A0000B92A00006C
:1036B000712A0000812A0000792A0000892A00006E
:1036C000252A00003D2A00005D2A0000652A00002E
:1036D000912A0000992A0000F5290000012A000023
:1036E0000D2A0000192A0000C92A0000AD2A000096
:1036F000430000001088FF1FF8B500BFF8BC08BCED
:103700009E46704725310000350400003118000046
:0C371000CD280000D9290000E52A0000A7
:04371C00F8B500BF3D
:103720000A040000FFFFFFFF6895FF1F120100025F
:1037300002000040C01683040001010203010000E2
:1037400018035400650065006E0073007900640082
:10375000750069006E006F0009024300020100C09D
:1037600032090400000102020100052400100105D5
:103770002401010104240206052406000107058234
:103780000310004009040100020A000000070503BD
:1037900002400000070584024000000016035500A7
:1037A0005300420020005300650072006900610070
:1037B0006C000000040309040C030000000000007A
:1037C00000000000000000000000000000000000F9
:1037D00000000000FC8AFF1F648BFF1FCC8BFF1FC3
:1037E00000000000000000000000000000000000D9
:1037F00000000000000000000000000000000000C9
:1038000000000000F0360000000000000000000092
:1038100000000000000000000000000000000000A8
:103820000000000000000000000000000000000098
:103830000000000000000000000000000000000088
:103840000000000000000000000000000000000078
:103850000000000000000000000000000000000068
:103860000000000000000000000000000000000058
:103870000000000000000000010000000000000047
:103880000E33CDAB34126DE6ECDE05000B0000000C
:103890000000000000000000000000000000000028
:1038A0000000000000000000000000000000000018
:1038B0000000000000000000000000000000000008
:1038C00000000000000000000000000000000000F8
:103BF00000000000000000001088FF1F000000000F
:103C0000000000003C8CFF1F3C8CFF1F448CFF1FFA
:103C1000448CFF1F4C8CFF1F4C8CFF1F548CFF1FCC
:103C2000548CFF1F5C8CFF1F5C8CFF1F648CFF1F7C
:103C3000648CFF1F6C8CFF1F6C8CFF1F748CFF1F2C
:103C4000748CFF1F7C8CFF1F7C8CFF1F848CFF1FDC
:103C5000848CFF1F8C8CFF1F8C8CFF1F948CFF1F8C
:103C6000948CFF1F9C8CFF1F9C8CFF1FA48CFF1F3C
:103C7000A48CFF1FAC8CFF1FAC8CFF1FB48CFF1FEC
:103C8000B48CFF1FBC8CFF1FBC8CFF1FC48CFF1F9C
:103C9000C48CFF1FCC8CFF1FCC8CFF1FD48CFF1F4C
:103CA000D48CFF1FDC8CFF1FDC8CFF1FE48CFF1FFC
:103CB000E48CFF1FEC8CFF1FEC8CFF1FF48CFF1FAC
:103CC000F48CFF1FFC8CFF1FFC8CFF1F048DFF1F5B
:103CD000048DFF1F0C8DFF1F0C8DFF1F148DFF1F08
:103CE000148DFF1F1C8DFF1F1C8DFF1F248DFF1FB8
:103CF000248DFF1F2C8DFF1F2C8DFF1F348DFF1F68
:103D0000348DFF1F3C8DFF1F3C8DFF1F448DFF1F17
:103D1000448DFF1F4C8DFF1F4C8DFF1F548DFF1FC7
:103D2000548DFF1F5C8DFF1F5C8DFF1F648DFF1F77
:103D3000648DFF1F6C8DFF1F6C8DFF1F748DFF1F27
:103D4000748DFF1F7C8DFF1F7C8DFF1F848DFF1FD7
:103D5000848DFF1F8C8DFF1F8C8DFF1F948DFF1F87
:103D6000948DFF1F9C8DFF1F9C8DFF1FA48DFF1F37
:103D7000A48DFF1FAC8DFF1FAC8DFF1FB48DFF1FE7
:103D8000B48DFF1FBC8DFF1FBC8DFF1FC48DFF1F97
:103D9000C48DFF1FCC8DFF1FCC8DFF1FD48DFF1F47
:103DA000D48DFF1FDC8DFF1FDC8DFF1FE48DFF1FF7
:103DB000E48DFF1FEC8DFF1FEC8DFF1FF48DFF1FA7
:103DC000F48DFF1FFC8DFF1FFC8DFF1F048EFF1F56
:103DD000048EFF1F0C8EFF1F0C8EFF1F148EFF1F03
:103DE000148EFF1F1C8EFF1F1C8EFF1F248EFF1FB3
:103DF000248EFF1F2C8EFF1F2C8EFF1F348EFF1F63
:103E0000348EFF1F3C8EFF1F3C8EFF1F448EFF1F12
:103E1000448EFF1F4C8EFF1F4C8EFF1F548EFF1FC2
:103E2000548EFF1F5C8EFF1F5C8EFF1F648EFF1F72
:103E3000648EFF1F6C8EFF1F6C8EFF1F748EFF1F22
:103E4000748EFF1F7C8EFF1F7C8EFF1F848EFF1FD2
:103E5000848EFF1F8C8EFF1F8C8EFF1F948EFF1F82
:103E6000948EFF1F9C8EFF1F9C8EFF1FA48EFF1F32
:103E7000A48EFF1FAC8EFF1FAC8EFF1FB48EFF1FE2
:103E8000B48EFF1FBC8EFF1FBC8EFF1FC48EFF1F92
:103E9000C48EFF1FCC8EFF1FCC8EFF1FD48EFF1F42
:103EA000D48EFF1FDC8EFF1FDC8EFF1FE48EFF1FF2
:103EB000E48EFF1FEC8EFF1FEC8EFF1FF48EFF1FA2
:103EC000F48EFF1FFC8EFF1FFC8EFF1F048FFF1F51
:103ED000048FFF1F0C8FFF1F0C8FFF1F148FFF1FFE
:103EE000148FFF1F1C8FFF1F1C8FFF1F248FFF1FAE
:103EF000248FFF1F2C8FFF1F2C8FFF1F348FFF1F5E
:103F0000348FFF1F3C8FFF1F3C8FFF1F448FFF1F0D
:103F1000448FFF1F4C8FFF1F4C8FFF1F548FFF1FBD
:103F2000548FFF1F5C8FFF1F5C8FFF1F648FFF1F6D
:103F3000648FFF1F6C8FFF1F6C8FFF1F748FFF1F1D
:103F4000748FFF1F7C8FFF1F7C8FFF1F848FFF1FCD
:103F5000848FFF1F8C8FFF1F8C8FFF1F948FFF1F7D
:103F6000948FFF1F9C8FFF1F9C8FFF1FA48FFF1F2D
:103F7000A48FFF1FAC8FFF1FAC8FFF1FB48FFF1FDD
:103F8000B48FFF1FBC8FFF1FBC8FFF1FC48FFF1F8D
:103F9000C48FFF1FCC8FFF1FCC8FFF1FD48FFF1F3D
:103FA000D48FFF1FDC8FFF1FDC8FFF1FE48FFF1FED
:103FB000E48FFF1FEC8FFF1FEC8FFF1FF48FFF1F9D
:103FC000F48FFF1FFC8FFF1FFC8FFF1F0490FF1F4C
:103FD0000490FF1F0C90FF1F0C90FF1F1490FF1FF9
:103FE0001490FF1F1C90FF1F1C90FF1F2490FF1FA9
:103FF0002490FF1F2C90FF1F2C90FF1F3490FF1F59
:0C4000003490FF1F00000200FFFFFFFFD4
:00000001FF
